{
  "_format": "hh-sol-artifact-1",
  "contractName": "JobBoard",
  "sourceName": "contracts/JobBoard.sol",
  "abi": [
    {
      "anonymous": false,
      "inputs": [
        {
          "indexed": false,
          "internalType": "uint256",
          "name": "jobId",
          "type": "uint256"
        },
        {
          "indexed": false,
          "internalType": "address",
          "name": "developer",
          "type": "address"
        }
      ],
      "name": "AppliedToJob",
      "type": "event"
    },
    {
      "anonymous": false,
      "inputs": [
        {
          "indexed": false,
          "internalType": "uint256",
          "name": "jobId",
          "type": "uint256"
        },
        {
          "indexed": false,
          "internalType": "address",
          "name": "developer",
          "type": "address"
        },
        {
          "indexed": false,
          "internalType": "uint256",
          "name": "amount",
          "type": "uint256"
        }
      ],
      "name": "DeveloperHired",
      "type": "event"
    },
    {
      "anonymous": false,
      "inputs": [
        {
          "indexed": false,
          "internalType": "uint256",
          "name": "jobId",
          "type": "uint256"
        },
        {
          "indexed": false,
          "internalType": "address",
          "name": "client",
          "type": "address"
        },
        {
          "indexed": false,
          "internalType": "uint256",
          "name": "amount",
          "type": "uint256"
        }
      ],
      "name": "JobPosted",
      "type": "event"
    },
    {
      "inputs": [
        {
          "internalType": "uint256",
          "name": "_jobId",
          "type": "uint256"
        },
        {
          "internalType": "string",
          "name": "_github",
          "type": "string"
        },
        {
          "internalType": "string",
          "name": "_pitch",
          "type": "string"
        }
      ],
      "name": "applyToJob",
      "outputs": [],
      "stateMutability": "nonpayable",
      "type": "function"
    },
    {
      "inputs": [
        {
          "internalType": "uint256",
          "name": "_jobId",
          "type": "uint256"
        }
      ],
      "name": "cancelJob",
      "outputs": [],
      "stateMutability": "nonpayable",
      "type": "function"
    },
    {
      "inputs": [],
      "name": "getAllJobs",
      "outputs": [
        {
          "components": [
            {
              "internalType": "uint256",
              "name": "id",
              "type": "uint256"
            },
            {
              "internalType": "address",
              "name": "client",
              "type": "address"
            },
            {
              "internalType": "string",
              "name": "description",
              "type": "string"
            },
            {
              "internalType": "uint256",
              "name": "budget",
              "type": "uint256"
            },
            {
              "internalType": "bool",
              "name": "isOpen",
              "type": "bool"
            },
            {
              "internalType": "address",
              "name": "developer",
              "type": "address"
            },
            {
              "internalType": "bool",
              "name": "isPaid",
              "type": "bool"
            }
          ],
          "internalType": "struct JobBoard.Job[]",
          "name": "",
          "type": "tuple[]"
        }
      ],
      "stateMutability": "view",
      "type": "function"
    },
    {
      "inputs": [
        {
          "internalType": "uint256",
          "name": "_jobId",
          "type": "uint256"
        }
      ],
      "name": "getApplicants",
      "outputs": [
        {
          "components": [
            {
              "internalType": "address",
              "name": "developer",
              "type": "address"
            },
            {
              "internalType": "string",
              "name": "github",
              "type": "string"
            },
            {
              "internalType": "string",
              "name": "pitch",
              "type": "string"
            },
            {
              "internalType": "bool",
              "name": "hired",
              "type": "bool"
            }
          ],
          "internalType": "struct JobBoard.Application[]",
          "name": "",
          "type": "tuple[]"
        }
      ],
      "stateMutability": "view",
      "type": "function"
    },
    {
      "inputs": [
        {
          "internalType": "uint256",
          "name": "_jobId",
          "type": "uint256"
        },
        {
          "internalType": "uint256",
          "name": "_applicantIndex",
          "type": "uint256"
        }
      ],
      "name": "hireDeveloper",
      "outputs": [],
      "stateMutability": "nonpayable",
      "type": "function"
    },
    {
      "inputs": [
        {
          "internalType": "uint256",
          "name": "",
          "type": "uint256"
        },
        {
          "internalType": "uint256",
          "name": "",
          "type": "uint256"
        }
      ],
      "name": "jobApplications",
      "outputs": [
        {
          "internalType": "address",
          "name": "developer",
          "type": "address"
        },
        {
          "internalType": "string",
          "name": "github",
          "type": "string"
        },
        {
          "internalType": "string",
          "name": "pitch",
          "type": "string"
        },
        {
          "internalType": "bool",
          "name": "hired",
          "type": "bool"
        }
      ],
      "stateMutability": "view",
      "type": "function"
    },
    {
      "inputs": [],
      "name": "jobCount",
      "outputs": [
        {
          "internalType": "uint256",
          "name": "",
          "type": "uint256"
        }
      ],
      "stateMutability": "view",
      "type": "function"
    },
    {
      "inputs": [
        {
          "internalType": "uint256",
          "name": "",
          "type": "uint256"
        }
      ],
      "name": "jobs",
      "outputs": [
        {
          "internalType": "uint256",
          "name": "id",
          "type": "uint256"
        },
        {
          "internalType": "address",
          "name": "client",
          "type": "address"
        },
        {
          "internalType": "string",
          "name": "description",
          "type": "string"
        },
        {
          "internalType": "uint256",
          "name": "budget",
          "type": "uint256"
        },
        {
          "internalType": "bool",
          "name": "isOpen",
          "type": "bool"
        },
        {
          "internalType": "address",
          "name": "developer",
          "type": "address"
        },
        {
          "internalType": "bool",
          "name": "isPaid",
          "type": "bool"
        }
      ],
      "stateMutability": "view",
      "type": "function"
    },
    {
      "inputs": [
        {
          "internalType": "string",
          "name": "_description",
          "type": "string"
        }
      ],
      "name": "postJob",
      "outputs": [],
      "stateMutability": "payable",
      "type": "function"
    }
  ],
  "bytecode": "0x608060405234801561001057600080fd5b506122f8806100206000396000f3fe6080604052600436106100865760003560e01c80634c5d8a0f116100595780634c5d8a0f1461013c5780636cf5d86e1461016757806371cc8d2d146101a4578063965a79fb146101cd578063ead39a11146101f857610086565b8063180aedf31461008b5780631dffa3dc146100ce57806327a6d1d7146100f75780634ae86a9914610113575b600080fd5b34801561009757600080fd5b506100b260048036038101906100ad91906113fd565b610238565b6040516100c59796959493929190611525565b60405180910390f35b3480156100da57600080fd5b506100f560048036038101906100f091906113fd565b61035c565b005b610111600480360381019061010c9190611600565b61054c565b005b34801561011f57600080fd5b5061013a6004803603810190610135919061164d565b6107a2565b005b34801561014857600080fd5b50610151610b27565b60405161015e919061168d565b60405180910390f35b34801561017357600080fd5b5061018e600480360381019061018991906113fd565b610b2d565b60405161019b919061183c565b60405180910390f35b3480156101b057600080fd5b506101cb60048036038101906101c6919061185e565b610d34565b005b3480156101d957600080fd5b506101e2610f70565b6040516101ef9190611a60565b60405180910390f35b34801561020457600080fd5b5061021f600480360381019061021a919061164d565b6111c6565b60405161022f9493929190611a82565b60405180910390f35b60016020528060005260406000206000915090508060000154908060010160009054906101000a900473ffffffffffffffffffffffffffffffffffffffff169080600201805461028790611b04565b80601f01602080910402602001604051908101604052809291908181526020018280546102b390611b04565b80156103005780601f106102d557610100808354040283529160200191610300565b820191906000526020600020905b8154815290600101906020018083116102e357829003601f168201915b5050505050908060030154908060040160009054906101000a900460ff16908060040160019054906101000a900473ffffffffffffffffffffffffffffffffffffffff16908060040160159054906101000a900460ff16905087565b60006001600083815260200190815260200160002090508060010160009054906101000a900473ffffffffffffffffffffffffffffffffffffffff1673ffffffffffffffffffffffffffffffffffffffff163373ffffffffffffffffffffffffffffffffffffffff1614610405576040517f08c379a00000000000000000000000000000000000000000000000000000000081526004016103fc90611b81565b60405180910390fd5b8060040160009054906101000a900460ff16610456576040517f08c379a000000000000000000000000000000000000000000000000000000000815260040161044d90611bed565b60405180910390fd5b60008160040160006101000a81548160ff02191690831515021790555060008160010160009054906101000a900473ffffffffffffffffffffffffffffffffffffffff1673ffffffffffffffffffffffffffffffffffffffff1682600301546040516104c190611c3e565b60006040518083038185875af1925050503d80600081146104fe576040519150601f19603f3d011682016040523d82523d6000602084013e610503565b606091505b5050905080610547576040517f08c379a000000000000000000000000000000000000000000000000000000000815260040161053e90611c9f565b60405180910390fd5b505050565b6000341161058f576040517f08c379a000000000000000000000000000000000000000000000000000000000815260040161058690611d0b565b60405180910390fd5b6000808154809291906105a190611d5a565b91905055506040518060e0016040528060005481526020013373ffffffffffffffffffffffffffffffffffffffff16815260200183838080601f016020809104026020016040519081016040528093929190818152602001838380828437600081840152601f19601f820116905080830192505050505050508152602001348152602001600115158152602001600073ffffffffffffffffffffffffffffffffffffffff1681526020016000151581525060016000805481526020019081526020016000206000820151816000015560208201518160010160006101000a81548173ffffffffffffffffffffffffffffffffffffffff021916908373ffffffffffffffffffffffffffffffffffffffff16021790555060408201518160020190816106cc9190611f7d565b506060820151816003015560808201518160040160006101000a81548160ff02191690831515021790555060a08201518160040160016101000a81548173ffffffffffffffffffffffffffffffffffffffff021916908373ffffffffffffffffffffffffffffffffffffffff16021790555060c08201518160040160156101000a81548160ff0219169083151502179055509050507fe6f2f347838fc981db964da8bbb1855db0ed5008037096e90da474c23b0f432b60005433346040516107969392919061204f565b60405180910390a15050565b60006001600084815260200190815260200160002090508060010160009054906101000a900473ffffffffffffffffffffffffffffffffffffffff1673ffffffffffffffffffffffffffffffffffffffff163373ffffffffffffffffffffffffffffffffffffffff161461084b576040517f08c379a0000000000000000000000000000000000000000000000000000000008152600401610842906120d2565b60405180910390fd5b8060040160009054906101000a900460ff1661089c576040517f08c379a000000000000000000000000000000000000000000000000000000000815260040161089390611bed565b60405180910390fd5b600260008481526020019081526020016000208054905082106108f4576040517f08c379a00000000000000000000000000000000000000000000000000000000081526004016108eb9061213e565b60405180910390fd5b600060026000858152602001908152602001600020838154811061091b5761091a61215e565b5b906000526020600020906004020190508060000160009054906101000a900473ffffffffffffffffffffffffffffffffffffffff168260040160016101000a81548173ffffffffffffffffffffffffffffffffffffffff021916908373ffffffffffffffffffffffffffffffffffffffff16021790555060008260040160006101000a81548160ff02191690831515021790555060018260040160156101000a81548160ff02191690831515021790555060018160030160006101000a81548160ff02191690831515021790555060008160000160009054906101000a900473ffffffffffffffffffffffffffffffffffffffff1673ffffffffffffffffffffffffffffffffffffffff168360030154604051610a3790611c3e565b60006040518083038185875af1925050503d8060008114610a74576040519150601f19603f3d011682016040523d82523d6000602084013e610a79565b606091505b5050905080610abd576040517f08c379a0000000000000000000000000000000000000000000000000000000008152600401610ab4906121d9565b60405180910390fd5b7f5726889417d77e253ee727e59c01ace2ecf05f7c1160753624d1305e3e3c1149858360000160009054906101000a900473ffffffffffffffffffffffffffffffffffffffff168560030154604051610b189392919061204f565b60405180910390a15050505050565b60005481565b606060026000838152602001908152602001600020805480602002602001604051908101604052809291908181526020016000905b82821015610d2957838290600052602060002090600402016040518060800160405290816000820160009054906101000a900473ffffffffffffffffffffffffffffffffffffffff1673ffffffffffffffffffffffffffffffffffffffff1673ffffffffffffffffffffffffffffffffffffffff168152602001600182018054610beb90611b04565b80601f0160208091040260200160405190810160405280929190818152602001828054610c1790611b04565b8015610c645780601f10610c3957610100808354040283529160200191610c64565b820191906000526020600020905b815481529060010190602001808311610c4757829003601f168201915b50505050508152602001600282018054610c7d90611b04565b80601f0160208091040260200160405190810160405280929190818152602001828054610ca990611b04565b8015610cf65780601f10610ccb57610100808354040283529160200191610cf6565b820191906000526020600020905b815481529060010190602001808311610cd957829003601f168201915b505050505081526020016003820160009054906101000a900460ff16151515158152505081526020019060010190610b62565b505050509050919050565b60006001600087815260200190815260200160002090508060040160009054906101000a900460ff16610d9c576040517f08c379a0000000000000000000000000000000000000000000000000000000008152600401610d9390612245565b60405180910390fd5b6002600087815260200190815260200160002060405180608001604052803373ffffffffffffffffffffffffffffffffffffffff16815260200187878080601f016020809104026020016040519081016040528093929190818152602001838380828437600081840152601f19601f82011690508083019250505050505050815260200185858080601f016020809104026020016040519081016040528093929190818152602001838380828437600081840152601f19601f82011690508083019250505050505050815260200160001515815250908060018154018082558091505060019003906000526020600020906004020160009091909190915060008201518160000160006101000a81548173ffffffffffffffffffffffffffffffffffffffff021916908373ffffffffffffffffffffffffffffffffffffffff1602179055506020820151816001019081610ef69190611f7d565b506040820151816002019081610f0c9190611f7d565b5060608201518160030160006101000a81548160ff02191690831515021790555050507f8bb274de5ef0c0bab941fa07478f65995d8c99cc4163cbf443b15212de67cfcc8633604051610f60929190612265565b60405180910390a1505050505050565b60606000805467ffffffffffffffff811115610f8f57610f8e611da2565b5b604051908082528060200260200182016040528015610fc857816020015b610fb5611350565b815260200190600190039081610fad5790505b5090506000600190505b60005481116111be57600160008281526020019081526020016000206040518060e0016040529081600082015481526020016001820160009054906101000a900473ffffffffffffffffffffffffffffffffffffffff1673ffffffffffffffffffffffffffffffffffffffff1673ffffffffffffffffffffffffffffffffffffffff16815260200160028201805461106990611b04565b80601f016020809104026020016040519081016040528092919081815260200182805461109590611b04565b80156110e25780601f106110b7576101008083540402835291602001916110e2565b820191906000526020600020905b8154815290600101906020018083116110c557829003601f168201915b50505050508152602001600382015481526020016004820160009054906101000a900460ff161515151581526020016004820160019054906101000a900473ffffffffffffffffffffffffffffffffffffffff1673ffffffffffffffffffffffffffffffffffffffff1673ffffffffffffffffffffffffffffffffffffffff1681526020016004820160159054906101000a900460ff1615151515815250508260018361118f919061228e565b815181106111a05761119f61215e565b5b602002602001018190525080806111b690611d5a565b915050610fd2565b508091505090565b600260205281600052604060002081815481106111e257600080fd5b9060005260206000209060040201600091509150508060000160009054906101000a900473ffffffffffffffffffffffffffffffffffffffff169080600101805461122c90611b04565b80601f016020809104026020016040519081016040528092919081815260200182805461125890611b04565b80156112a55780601f1061127a576101008083540402835291602001916112a5565b820191906000526020600020905b81548152906001019060200180831161128857829003601f168201915b5050505050908060020180546112ba90611b04565b80601f01602080910402602001604051908101604052809291908181526020018280546112e690611b04565b80156113335780601f1061130857610100808354040283529160200191611333565b820191906000526020600020905b81548152906001019060200180831161131657829003601f168201915b5050505050908060030160009054906101000a900460ff16905084565b6040518060e0016040528060008152602001600073ffffffffffffffffffffffffffffffffffffffff1681526020016060815260200160008152602001600015158152602001600073ffffffffffffffffffffffffffffffffffffffff1681526020016000151581525090565b600080fd5b600080fd5b6000819050919050565b6113da816113c7565b81146113e557600080fd5b50565b6000813590506113f7816113d1565b92915050565b600060208284031215611413576114126113bd565b5b6000611421848285016113e8565b91505092915050565b611433816113c7565b82525050565b600073ffffffffffffffffffffffffffffffffffffffff82169050919050565b600061146482611439565b9050919050565b61147481611459565b82525050565b600081519050919050565b600082825260208201905092915050565b60005b838110156114b4578082015181840152602081019050611499565b60008484015250505050565b6000601f19601f8301169050919050565b60006114dc8261147a565b6114e68185611485565b93506114f6818560208601611496565b6114ff816114c0565b840191505092915050565b60008115159050919050565b61151f8161150a565b82525050565b600060e08201905061153a600083018a61142a565b611547602083018961146b565b818103604083015261155981886114d1565b9050611568606083018761142a565b6115756080830186611516565b61158260a083018561146b565b61158f60c0830184611516565b98975050505050505050565b600080fd5b600080fd5b600080fd5b60008083601f8401126115c0576115bf61159b565b5b8235905067ffffffffffffffff8111156115dd576115dc6115a0565b5b6020830191508360018202830111156115f9576115f86115a5565b5b9250929050565b60008060208385031215611617576116166113bd565b5b600083013567ffffffffffffffff811115611635576116346113c2565b5b611641858286016115aa565b92509250509250929050565b60008060408385031215611664576116636113bd565b5b6000611672858286016113e8565b9250506020611683858286016113e8565b9150509250929050565b60006020820190506116a2600083018461142a565b92915050565b600081519050919050565b600082825260208201905092915050565b6000819050602082019050919050565b6116dd81611459565b82525050565b600082825260208201905092915050565b60006116ff8261147a565b61170981856116e3565b9350611719818560208601611496565b611722816114c0565b840191505092915050565b6117368161150a565b82525050565b600060808301600083015161175460008601826116d4565b506020830151848203602086015261176c82826116f4565b9150506040830151848203604086015261178682826116f4565b915050606083015161179b606086018261172d565b508091505092915050565b60006117b2838361173c565b905092915050565b6000602082019050919050565b60006117d2826116a8565b6117dc81856116b3565b9350836020820285016117ee856116c4565b8060005b8581101561182a578484038952815161180b85826117a6565b9450611816836117ba565b925060208a019950506001810190506117f2565b50829750879550505050505092915050565b6000602082019050818103600083015261185681846117c7565b905092915050565b60008060008060006060868803121561187a576118796113bd565b5b6000611888888289016113e8565b955050602086013567ffffffffffffffff8111156118a9576118a86113c2565b5b6118b5888289016115aa565b9450945050604086013567ffffffffffffffff8111156118d8576118d76113c2565b5b6118e4888289016115aa565b92509250509295509295909350565b600081519050919050565b600082825260208201905092915050565b6000819050602082019050919050565b611928816113c7565b82525050565b600060e083016000830151611946600086018261191f565b50602083015161195960208601826116d4565b506040830151848203604086015261197182826116f4565b9150506060830151611986606086018261191f565b506080830151611999608086018261172d565b5060a08301516119ac60a08601826116d4565b5060c08301516119bf60c086018261172d565b508091505092915050565b60006119d6838361192e565b905092915050565b6000602082019050919050565b60006119f6826118f3565b611a0081856118fe565b935083602082028501611a128561190f565b8060005b85811015611a4e5784840389528151611a2f85826119ca565b9450611a3a836119de565b925060208a01995050600181019050611a16565b50829750879550505050505092915050565b60006020820190508181036000830152611a7a81846119eb565b905092915050565b6000608082019050611a97600083018761146b565b8181036020830152611aa981866114d1565b90508181036040830152611abd81856114d1565b9050611acc6060830184611516565b95945050505050565b7f4e487b7100000000000000000000000000000000000000000000000000000000600052602260045260246000fd5b60006002820490506001821680611b1c57607f821691505b602082108103611b2f57611b2e611ad5565b5b50919050565b7f556e617574686f72697a65640000000000000000000000000000000000000000600082015250565b6000611b6b600c83611485565b9150611b7682611b35565b602082019050919050565b60006020820190508181036000830152611b9a81611b5e565b9050919050565b7f4a6f6220616c726561647920636c6f7365640000000000000000000000000000600082015250565b6000611bd7601283611485565b9150611be282611ba1565b602082019050919050565b60006020820190508181036000830152611c0681611bca565b9050919050565b600081905092915050565b50565b6000611c28600083611c0d565b9150611c3382611c18565b600082019050919050565b6000611c4982611c1b565b9150819050919050565b7f526566756e64206661696c656400000000000000000000000000000000000000600082015250565b6000611c89600d83611485565b9150611c9482611c53565b602082019050919050565b60006020820190508181036000830152611cb881611c7c565b9050919050565b7f5061796d656e7420726571756972656400000000000000000000000000000000600082015250565b6000611cf5601083611485565b9150611d0082611cbf565b602082019050919050565b60006020820190508181036000830152611d2481611ce8565b9050919050565b7f4e487b7100000000000000000000000000000000000000000000000000000000600052601160045260246000fd5b6000611d65826113c7565b91507fffffffffffffffffffffffffffffffffffffffffffffffffffffffffffffffff8203611d9757611d96611d2b565b5b600182019050919050565b7f4e487b7100000000000000000000000000000000000000000000000000000000600052604160045260246000fd5b60008190508160005260206000209050919050565b60006020601f8301049050919050565b600082821b905092915050565b600060088302611e337fffffffffffffffffffffffffffffffffffffffffffffffffffffffffffffffff82611df6565b611e3d8683611df6565b95508019841693508086168417925050509392505050565b6000819050919050565b6000611e7a611e75611e70846113c7565b611e55565b6113c7565b9050919050565b6000819050919050565b611e9483611e5f565b611ea8611ea082611e81565b848454611e03565b825550505050565b600090565b611ebd611eb0565b611ec8818484611e8b565b505050565b5b81811015611eec57611ee1600082611eb5565b600181019050611ece565b5050565b601f821115611f3157611f0281611dd1565b611f0b84611de6565b81016020851015611f1a578190505b611f2e611f2685611de6565b830182611ecd565b50505b505050565b600082821c905092915050565b6000611f5460001984600802611f36565b1980831691505092915050565b6000611f6d8383611f43565b9150826002028217905092915050565b611f868261147a565b67ffffffffffffffff811115611f9f57611f9e611da2565b5b611fa98254611b04565b611fb4828285611ef0565b600060209050601f831160018114611fe75760008415611fd5578287015190505b611fdf8582611f61565b865550612047565b601f198416611ff586611dd1565b60005b8281101561201d57848901518255600182019150602085019450602081019050611ff8565b8683101561203a5784890151612036601f891682611f43565b8355505b6001600288020188555050505b505050505050565b6000606082019050612064600083018661142a565b612071602083018561146b565b61207e604083018461142a565b949350505050565b7f4e6f74206a6f62206f776e657200000000000000000000000000000000000000600082015250565b60006120bc600d83611485565b91506120c782612086565b602082019050919050565b600060208201905081810360008301526120eb816120af565b9050919050565b7f496e76616c6964206170706c6963616e74000000000000000000000000000000600082015250565b6000612128601183611485565b9150612133826120f2565b602082019050919050565b600060208201905081810360008301526121578161211b565b9050919050565b7f4e487b7100000000000000000000000000000000000000000000000000000000600052603260045260246000fd5b7f5061796d656e74206661696c6564000000000000000000000000000000000000600082015250565b60006121c3600e83611485565b91506121ce8261218d565b602082019050919050565b600060208201905081810360008301526121f2816121b6565b9050919050565b7f4a6f6220697320636c6f73656400000000000000000000000000000000000000600082015250565b600061222f600d83611485565b915061223a826121f9565b602082019050919050565b6000602082019050818103600083015261225e81612222565b9050919050565b600060408201905061227a600083018561142a565b612287602083018461146b565b9392505050565b6000612299826113c7565b91506122a4836113c7565b92508282039050818111156122bc576122bb611d2b565b5b9291505056fea26469706673582212205a1d7a9bc5e8bd7a34ccdfdd1c498b6f2baa4be47a637fdaaf50577e41fb6a3164736f6c63430008130033",
  "linkReferences": {},
  "deployedLinkReferences": {}
}